{
  "contractName": "Photo",
  "abi": [
    {
      "constant": true,
      "inputs": [
        {
          "name": "",
          "type": "uint256"
        }
      ],
      "name": "listingArray",
      "outputs": [
        {
          "name": "",
          "type": "uint256"
        }
      ],
      "payable": false,
      "stateMutability": "view",
      "type": "function",
      "signature": "0x6e3bff05"
    },
    {
      "constant": true,
      "inputs": [],
      "name": "listingCount",
      "outputs": [
        {
          "name": "",
          "type": "uint256"
        }
      ],
      "payable": false,
      "stateMutability": "view",
      "type": "function",
      "signature": "0xa9b07c26"
    },
    {
      "constant": true,
      "inputs": [
        {
          "name": "",
          "type": "uint256"
        }
      ],
      "name": "listings",
      "outputs": [
        {
          "name": "id",
          "type": "uint256"
        },
        {
          "name": "price",
          "type": "string"
        },
        {
          "name": "name",
          "type": "string"
        },
        {
          "name": "fileName",
          "type": "string"
        },
        {
          "name": "description",
          "type": "string"
        }
      ],
      "payable": false,
      "stateMutability": "view",
      "type": "function",
      "signature": "0xde74e57b"
    },
    {
      "inputs": [],
      "payable": false,
      "stateMutability": "nonpayable",
      "type": "constructor",
      "signature": "constructor"
    },
    {
      "constant": false,
      "inputs": [
        {
          "name": "id",
          "type": "uint256"
        },
        {
          "name": "price",
          "type": "string"
        },
        {
          "name": "name",
          "type": "string"
        },
        {
          "name": "fileName",
          "type": "string"
        },
        {
          "name": "description",
          "type": "string"
        }
      ],
      "name": "addPhoto",
      "outputs": [],
      "payable": false,
      "stateMutability": "nonpayable",
      "type": "function",
      "signature": "0xf6ec4618"
    },
    {
      "constant": true,
      "inputs": [
        {
          "name": "id",
          "type": "uint256"
        }
      ],
      "name": "getFilename",
      "outputs": [
        {
          "name": "",
          "type": "string"
        }
      ],
      "payable": false,
      "stateMutability": "view",
      "type": "function",
      "signature": "0xe901185e"
    },
    {
      "constant": true,
      "inputs": [],
      "name": "getLength",
      "outputs": [
        {
          "name": "",
          "type": "uint256"
        }
      ],
      "payable": false,
      "stateMutability": "view",
      "type": "function",
      "signature": "0xbe1c766b"
    },
    {
      "constant": true,
      "inputs": [
        {
          "name": "id",
          "type": "uint256"
        }
      ],
      "name": "getListing",
      "outputs": [
        {
          "name": "",
          "type": "uint256"
        },
        {
          "name": "",
          "type": "string"
        },
        {
          "name": "",
          "type": "string"
        },
        {
          "name": "",
          "type": "string"
        },
        {
          "name": "",
          "type": "string"
        }
      ],
      "payable": false,
      "stateMutability": "view",
      "type": "function",
      "signature": "0x107a274a"
    }
  ],
  "bytecode": "0x60806040523480156200001157600080fd5b506200012c60006040805190810160405280601381526020017f31303030303030303030303030303030303030000000000000000000000000008152506040805190810160405280601681526020017f537072696e6774696d6520696e204665627275617279000000000000000000008152506040805190810160405280601681526020017f33323731363139343832315f3531313534383137313500000000000000000000815250606060405190810160405280603681526020017f54616b656e2061742047656f7267696120537461746520556e6976657273697481526020017f7920696e204665627275617279206f6620323031372e0000000000000000000081525062000366640100000000026401000000009004565b6200024660016040805190810160405280601381526020017f31303030303030303030303030303030303030000000000000000000000000008152506040805190810160405280601081526020017f5468726f75676820436f6e6372657465000000000000000000000000000000008152506040805190810160405280601681526020017f33323032353038353133335f3163323761376634653000000000000000000000815250606060405190810160405280603681526020017f54616b656e2061742047656f7267696120537461746520556e6976657273697481526020017f7920696e204665627275617279206f6620323031372e0000000000000000000081525062000366640100000000026401000000009004565b6200036060026040805190810160405280601381526020017f31303030303030303030303030303030303030000000000000000000000000008152506040805190810160405280600f81526020017f43686572727920426c6f73736f6d7300000000000000000000000000000000008152506040805190810160405280601681526020017f33323037373035373833345f3632393732326533343700000000000000000000815250606060405190810160405280603181526020017f54616b656e2061742053756761726c6f6166204d696c6c7320696e204561737481526020017f2041746c616e746120696e20323031372e00000000000000000000000000000081525062000366640100000000026401000000009004565b62000524565b8460008087815260200190815260200160002060000181905550836000808781526020019081526020016000206001019080519060200190620003ab92919062000475565b50826000808781526020019081526020016000206002019080519060200190620003d792919062000475565b508160008087815260200190815260200160002060030190805190602001906200040392919062000475565b508060008087815260200190815260200160002060040190805190602001906200042f92919062000475565b5060018590806001815401808255809150509060018203906000526020600020016000909192909190915055506002600081548092919060010191905055505050505050565b828054600181600116156101000203166002900490600052602060002090601f016020900481019282601f10620004b857805160ff1916838001178555620004e9565b82800160010185558215620004e9579182015b82811115620004e8578251825591602001919060010190620004cb565b5b509050620004f89190620004fc565b5090565b6200052191905b808211156200051d57600081600090555060010162000503565b5090565b90565b6110f980620005346000396000f3fe608060405260043610610083576000357c0100000000000000000000000000000000000000000000000000000000900463ffffffff168063107a274a146100885780636e3bff0514610287578063a9b07c26146102d6578063be1c766b14610301578063de74e57b1461032c578063e901185e1461052b578063f6ec4618146105df575b600080fd5b34801561009457600080fd5b506100c1600480360360208110156100ab57600080fd5b8101908080359060200190929190505050610876565b6040518086815260200180602001806020018060200180602001858103855289818151815260200191508051906020019080838360005b838110156101135780820151818401526020810190506100f8565b50505050905090810190601f1680156101405780820380516001836020036101000a031916815260200191505b50858103845288818151815260200191508051906020019080838360005b8381101561017957808201518184015260208101905061015e565b50505050905090810190601f1680156101a65780820380516001836020036101000a031916815260200191505b50858103835287818151815260200191508051906020019080838360005b838110156101df5780820151818401526020810190506101c4565b50505050905090810190601f16801561020c5780820380516001836020036101000a031916815260200191505b50858103825286818151815260200191508051906020019080838360005b8381101561024557808201518184015260208101905061022a565b50505050905090810190601f1680156102725780820380516001836020036101000a031916815260200191505b50995050505050505050505060405180910390f35b34801561029357600080fd5b506102c0600480360360208110156102aa57600080fd5b8101908080359060200190929190505050610b71565b6040518082815260200191505060405180910390f35b3480156102e257600080fd5b506102eb610b94565b6040518082815260200191505060405180910390f35b34801561030d57600080fd5b50610316610b9a565b6040518082815260200191505060405180910390f35b34801561033857600080fd5b506103656004803603602081101561034f57600080fd5b8101908080359060200190929190505050610ba4565b6040518086815260200180602001806020018060200180602001858103855289818151815260200191508051906020019080838360005b838110156103b757808201518184015260208101905061039c565b50505050905090810190601f1680156103e45780820380516001836020036101000a031916815260200191505b50858103845288818151815260200191508051906020019080838360005b8381101561041d578082015181840152602081019050610402565b50505050905090810190601f16801561044a5780820380516001836020036101000a031916815260200191505b50858103835287818151815260200191508051906020019080838360005b83811015610483578082015181840152602081019050610468565b50505050905090810190601f1680156104b05780820380516001836020036101000a031916815260200191505b50858103825286818151815260200191508051906020019080838360005b838110156104e95780820151818401526020810190506104ce565b50505050905090810190601f1680156105165780820380516001836020036101000a031916815260200191505b50995050505050505050505060405180910390f35b34801561053757600080fd5b506105646004803603602081101561054e57600080fd5b8101908080359060200190929190505050610e3a565b6040518080602001828103825283818151815260200191508051906020019080838360005b838110156105a4578082015181840152602081019050610589565b50505050905090810190601f1680156105d15780820380516001836020036101000a031916815260200191505b509250505060405180910390f35b3480156105eb57600080fd5b50610874600480360360a081101561060257600080fd5b81019080803590602001909291908035906020019064010000000081111561062957600080fd5b82018360208201111561063b57600080fd5b8035906020019184600183028401116401000000008311171561065d57600080fd5b91908080601f016020809104026020016040519081016040528093929190818152602001838380828437600081840152601f19601f820116905080830192505050505050509192919290803590602001906401000000008111156106c057600080fd5b8201836020820111156106d257600080fd5b803590602001918460018302840111640100000000831117156106f457600080fd5b91908080601f016020809104026020016040519081016040528093929190818152602001838380828437600081840152601f19601f8201169050808301925050505050505091929192908035906020019064010000000081111561075757600080fd5b82018360208201111561076957600080fd5b8035906020019184600183028401116401000000008311171561078b57600080fd5b91908080601f016020809104026020016040519081016040528093929190818152602001838380828437600081840152601f19601f820116905080830192505050505050509192919290803590602001906401000000008111156107ee57600080fd5b82018360208201111561080057600080fd5b8035906020019184600183028401116401000000008311171561082257600080fd5b91908080601f016020809104026020016040519081016040528093929190818152602001838380828437600081840152601f19601f820116905080830192505050505050509192919290505050610ef1565b005b6000606080606080610886610ff8565b60008088815260200190815260200160002060a0604051908101604052908160008201548152602001600182018054600181600116156101000203166002900480601f0160208091040260200160405190810160405280929190818152602001828054600181600116156101000203166002900480156109475780601f1061091c57610100808354040283529160200191610947565b820191906000526020600020905b81548152906001019060200180831161092a57829003601f168201915b50505050508152602001600282018054600181600116156101000203166002900480601f0160208091040260200160405190810160405280929190818152602001828054600181600116156101000203166002900480156109e95780601f106109be576101008083540402835291602001916109e9565b820191906000526020600020905b8154815290600101906020018083116109cc57829003601f168201915b50505050508152602001600382018054600181600116156101000203166002900480601f016020809104026020016040519081016040528092919081815260200182805460018160011615610100020316600290048015610a8b5780601f10610a6057610100808354040283529160200191610a8b565b820191906000526020600020905b815481529060010190602001808311610a6e57829003601f168201915b50505050508152602001600482018054600181600116156101000203166002900480601f016020809104026020016040519081016040528092919081815260200182805460018160011615610100020316600290048015610b2d5780601f10610b0257610100808354040283529160200191610b2d565b820191906000526020600020905b815481529060010190602001808311610b1057829003601f168201915b505050505081525050905080600001518160200151826040015183606001518460800151839350829250819150809050955095509550955095505091939590929450565b600181815481101515610b8057fe5b906000526020600020016000915090505481565b60025481565b6000600254905090565b6000602052806000526040600020600091509050806000015490806001018054600181600116156101000203166002900480601f016020809104026020016040519081016040528092919081815260200182805460018160011615610100020316600290048015610c565780601f10610c2b57610100808354040283529160200191610c56565b820191906000526020600020905b815481529060010190602001808311610c3957829003601f168201915b505050505090806002018054600181600116156101000203166002900480601f016020809104026020016040519081016040528092919081815260200182805460018160011615610100020316600290048015610cf45780601f10610cc957610100808354040283529160200191610cf4565b820191906000526020600020905b815481529060010190602001808311610cd757829003601f168201915b505050505090806003018054600181600116156101000203166002900480601f016020809104026020016040519081016040528092919081815260200182805460018160011615610100020316600290048015610d925780601f10610d6757610100808354040283529160200191610d92565b820191906000526020600020905b815481529060010190602001808311610d7557829003601f168201915b505050505090806004018054600181600116156101000203166002900480601f016020809104026020016040519081016040528092919081815260200182805460018160011615610100020316600290048015610e305780601f10610e0557610100808354040283529160200191610e30565b820191906000526020600020905b815481529060010190602001808311610e1357829003601f168201915b5050505050905085565b60606000808381526020019081526020016000206003018054600181600116156101000203166002900480601f016020809104026020016040519081016040528092919081815260200182805460018160011615610100020316600290048015610ee55780601f10610eba57610100808354040283529160200191610ee5565b820191906000526020600020905b815481529060010190602001808311610ec857829003601f168201915b50505050509050919050565b8460008087815260200190815260200160002060000181905550836000808781526020019081526020016000206001019080519060200190610f34929190611028565b50826000808781526020019081526020016000206002019080519060200190610f5e929190611028565b50816000808781526020019081526020016000206003019080519060200190610f88929190611028565b50806000808781526020019081526020016000206004019080519060200190610fb2929190611028565b5060018590806001815401808255809150509060018203906000526020600020016000909192909190915055506002600081548092919060010191905055505050505050565b60a06040519081016040528060008152602001606081526020016060815260200160608152602001606081525090565b828054600181600116156101000203166002900490600052602060002090601f016020900481019282601f1061106957805160ff1916838001178555611097565b82800160010185558215611097579182015b8281111561109657825182559160200191906001019061107b565b5b5090506110a491906110a8565b5090565b6110ca91905b808211156110c65760008160009055506001016110ae565b5090565b9056fea165627a7a723058203aa21d3766a407db5b0d70ff8ed5f3cf3e80adeb10bdb04d9987f5c94ca192af0029",
  "source": "pragma solidity ^0.5.0;\n\ncontract Photo {\n  struct Listing {\n    // general structure of things for a photo listing\n    uint id;\n    string price;\n    string name;\n    string fileName;\n    string description;\n  }\n  mapping (uint => Listing) public listings;\n  uint[] public listingArray;\n  uint public listingCount;\n  constructor () public { // since this acts as a marketplace ran by an individual, photos are hardcoded, otherwise we would have a way to set these photos dynamically\n    addPhoto (0, \"1000000000000000000\", \"Springtime in February\", \"32716194821_5115481715\", \"Taken at Georgia State University in February of 2017.\");\n    addPhoto (1, \"1000000000000000000\", \"Through Concrete\", \"32025085133_1c27a7f4e0\", \"Taken at Georgia State University in February of 2017.\");\n    addPhoto (2, \"1000000000000000000\", \"Cherry Blossoms\", \"32077057834_629722e347\", \"Taken at Sugarloaf Mills in East Atlanta in 2017.\");\n  }\n  function addPhoto (uint id, string memory price, string memory name, string memory fileName, string memory description) public { // visibility should be private since it won't be used outside this contract\n    listings[id].id = id;\n    listings[id].price = price;\n    listings[id].name = name;\n    listings[id].fileName = fileName;\n    listings[id].description = description;\n    listingArray.push(id);\n    listingCount++;\n  }\n  function getFilename (uint id) public view returns (string memory) {\n    return (listings[id].fileName);\n  }\n  function getLength () public view returns (uint) {\n    return listingCount;\n  }\n  function getListing (uint id) public view returns (uint, string memory, string memory, string memory, string memory)\n  {\n    Listing memory listing = listings[id];\n    return (listing.id, listing.price, listing.name, listing.fileName, listing.description);\n  }\n}\n",
  "sourcePath": "/Users/Everblack/Desktop/dphotos/contracts/Photo.sol",
  "compiler": {
    "name": "solc",
    "version": "0.5.0+commit.1d4f565a.Emscripten.clang"
  },
  "schemaVersion": "3.0.8",
  "updatedAt": "2019-04-28T03:15:22.205Z",
  "devdoc": {
    "methods": {}
  },
  "userdoc": {
    "methods": {}
  }
}