{
  "contractName": "Photo",
  "abi": [
    {
      "constant": true,
      "inputs": [],
      "name": "listingCount",
      "outputs": [
        {
          "name": "",
          "type": "uint256"
        }
      ],
      "payable": false,
      "stateMutability": "view",
      "type": "function",
      "signature": "0xa9b07c26"
    },
    {
      "constant": true,
      "inputs": [
        {
          "name": "",
          "type": "uint256"
        }
      ],
      "name": "listings",
      "outputs": [
        {
          "name": "name",
          "type": "string"
        },
        {
          "name": "description",
          "type": "string"
        },
        {
          "name": "actualName",
          "type": "string"
        },
        {
          "name": "price",
          "type": "string"
        }
      ],
      "payable": false,
      "stateMutability": "view",
      "type": "function",
      "signature": "0xde74e57b"
    },
    {
      "inputs": [],
      "payable": false,
      "stateMutability": "nonpayable",
      "type": "constructor",
      "signature": "constructor"
    }
  ],
  "bytecode": "0x608060405234801561001057600080fd5b5060606040805190810160405280601681526020017f537072696e6774696d6520696e20466562727561727900000000000000000000815250905060608060405190810160405280603681526020017f54616b656e2061742047656f7267696120537461746520556e6976657273697481526020017f7920696e204665627275617279206f6620323031372e00000000000000000000815250905060606040805190810160405280601681526020017f33323731363139343832315f3531313534383137313500000000000000000000815250905060606040805190810160405280600181526020017f3100000000000000000000000000000000000000000000000000000000000000815250905061013a84848484610387640100000000026401000000009004565b6040805190810160405280601081526020017f5468726f75676820436f6e6372657465000000000000000000000000000000008152509350606060405190810160405280603681526020017f54616b656e2061742047656f7267696120537461746520556e6976657273697481526020017f7920696e204665627275617279206f6620323031372e0000000000000000000081525092506040805190810160405280601681526020017f33323032353038353133335f316332376137663465300000000000000000000081525091506040805190810160405280600181526020017f3100000000000000000000000000000000000000000000000000000000000000815250905061025c84848484610387640100000000026401000000009004565b6040805190810160405280600f81526020017f43686572727920426c6f73736f6d7300000000000000000000000000000000008152509350606060405190810160405280603681526020017f54616b656e2061742047656f7267696120537461746520556e6976657273697481526020017f7920696e204665627275617279206f6620323031372e0000000000000000000081525092506040805190810160405280601681526020017f33323037373035373833345f363239373232653334370000000000000000000081525091506040805190810160405280600181526020017f3100000000000000000000000000000000000000000000000000000000000000815250905061037e84848484610387640100000000026401000000009004565b505050506104f1565b60016000815480929190600101919050555060806040519081016040528085815260200184815260200183815260200182815250600080600154815260200190815260200160002060008201518160000190805190602001906103eb92919061044c565b50602082015181600101908051906020019061040892919061044c565b50604082015181600201908051906020019061042592919061044c565b50606082015181600301908051906020019061044292919061044c565b5090505050505050565b828054600181600116156101000203166002900490600052602060002090601f016020900481019282601f1061048d57805160ff19168380011785556104bb565b828001600101855582156104bb579182015b828111156104ba57825182559160200191906001019061049f565b5b5090506104c891906104cc565b5090565b6104ee91905b808211156104ea5760008160009055506001016104d2565b5090565b90565b610536806105006000396000f3fe60806040526004361061004c576000357c0100000000000000000000000000000000000000000000000000000000900463ffffffff168063a9b07c2614610051578063de74e57b1461007c575b600080fd5b34801561005d57600080fd5b50610066610274565b6040518082815260200191505060405180910390f35b34801561008857600080fd5b506100b56004803603602081101561009f57600080fd5b810190808035906020019092919050505061027a565b6040518080602001806020018060200180602001858103855289818151815260200191508051906020019080838360005b838110156101015780820151818401526020810190506100e6565b50505050905090810190601f16801561012e5780820380516001836020036101000a031916815260200191505b50858103845288818151815260200191508051906020019080838360005b8381101561016757808201518184015260208101905061014c565b50505050905090810190601f1680156101945780820380516001836020036101000a031916815260200191505b50858103835287818151815260200191508051906020019080838360005b838110156101cd5780820151818401526020810190506101b2565b50505050905090810190601f1680156101fa5780820380516001836020036101000a031916815260200191505b50858103825286818151815260200191508051906020019080838360005b83811015610233578082015181840152602081019050610218565b50505050905090810190601f1680156102605780820380516001836020036101000a031916815260200191505b509850505050505050505060405180910390f35b60015481565b6000602052806000526040600020600091509050806000018054600181600116156101000203166002900480601f0160208091040260200160405190810160405280929190818152602001828054600181600116156101000203166002900480156103265780601f106102fb57610100808354040283529160200191610326565b820191906000526020600020905b81548152906001019060200180831161030957829003601f168201915b505050505090806001018054600181600116156101000203166002900480601f0160208091040260200160405190810160405280929190818152602001828054600181600116156101000203166002900480156103c45780601f10610399576101008083540402835291602001916103c4565b820191906000526020600020905b8154815290600101906020018083116103a757829003601f168201915b505050505090806002018054600181600116156101000203166002900480601f0160208091040260200160405190810160405280929190818152602001828054600181600116156101000203166002900480156104625780601f1061043757610100808354040283529160200191610462565b820191906000526020600020905b81548152906001019060200180831161044557829003601f168201915b505050505090806003018054600181600116156101000203166002900480601f0160208091040260200160405190810160405280929190818152602001828054600181600116156101000203166002900480156105005780601f106104d557610100808354040283529160200191610500565b820191906000526020600020905b8154815290600101906020018083116104e357829003601f168201915b505050505090508456fea165627a7a72305820e035f4a919727ad902c50c8e587829405e5b31b361ac0fe58d37637eef61d6140029",
  "source": "pragma solidity >=0.5.0;\n\ncontract Photo {\n  struct Listing {\n    // general structure of things for a photo listing\n    string name;\n    string description;\n    string actualName;\n    string price;\n  }\n  mapping (uint => Listing) public listings;\n  uint public listingCount;\n  constructor () public { // let's start out with adding the photos\n    // picture 1\n    string memory title = \"Springtime in February\";\n    string memory description = \"Taken at Georgia State University in February of 2017.\";\n    string memory actualName = \"32716194821_5115481715\";\n    string memory price = '1';\n    addPhoto (title, description, actualName, price);\n    // picture 2\n    title = \"Through Concrete\";\n    description = \"Taken at Georgia State University in February of 2017.\";\n    actualName = \"32025085133_1c27a7f4e0\";\n    price = '1';\n    addPhoto (title, description, actualName, price);\n    // picture 3\n    title = \"Cherry Blossoms\";\n    description = \"Taken at Georgia State University in February of 2017.\";\n    actualName = \"32077057834_629722e347\";\n    price = '1';\n    addPhoto (title, description, actualName, price);\n  }\n  function addPhoto (string memory title, string memory description, string memory actualName, string memory price) private { // visibility should be private since it won't be used outside this contract\n    listingCount++;\n    listings[listingCount] = Listing (title, description, actualName, price);\n  }\n}\n",
  "sourcePath": "/Users/Everblack/Desktop/dphotos/contracts/Photo.sol",
  "compiler": {
    "name": "solc",
    "version": "0.5.0+commit.1d4f565a.Emscripten.clang"
  },
  "schemaVersion": "3.0.2",
  "updatedAt": "2019-04-15T14:24:10.454Z",
  "devdoc": {
    "methods": {}
  },
  "userdoc": {
    "methods": {}
  }
}